:080000000C9444000C94510122
:100008000C9461010C944D010C9445010C94000072
:100018000C9441010C9400000C943A010C942E01AC
:100028000C9400000C9474000C9400000C94A30031
:100038000C9486010C9400000C9400000C940000B1
:100048000C9473010C9436010C9400001027E803FB
:1000580064000A0001000010000110000100000007
:10006800000001002F0001000200660002000A00E3
:1000780068000100B5016A000100B6016C000000CB
:10008800F894EE27ECBBF1E0FBBFEBBFE5BFF8E16E
:10009800F1BDE1BD8DE0A2E0BB27ED938A95E9F7BC
:1000A80080E094E0A0E6ED930197E9F7EEE6F0E052
:1000B80085919591009761F0A591B591059015905E
:1000C800BF01F00105900D920197E1F7FB01F0CF18
:1000D800EFE5EDBFE4E0EEBFC0E6D1E00C945C02D2
:1000E80075D21A930A931BB10CB1E12FEC7189F404
:1000F800E52D5394F0E0E05AFE4F0083E0E2E51569
:1001080009F455247394E0E2E71519F47724689408
:1001180020F80991199122C01A937720F1F3E42D60
:100128004394F0E0E05AFE4F1081E0E2E41509F450
:100138004424F8947A947894E12F1991089546D23A
:10014800882061F08A94E92D9394F0E0E058FE4FFE
:10015800E081ECB9E0E2E91509F49924E991EFBFEF
:10016800F991E9911895AA93E0E2E815E9F3F89472
:10017800882011F45D990DC0E62D6394F0E0E058F5
:10018800FE4FA881A083E0E2E61509F46624839473
:1001980002C0E881ECB978945BC0AA93E091B501FC
:1001A800E03059F0E881F0E0E056FE4FE081E030C1
:1001B80021F0A091B601A03308F44AC0E881F0E02C
:1001C800309761F4AA9AE091A501E03009F0AD9A60
:1001D800E091A601E03009F0AF9A1FC0E130A0E03D
:1001E800FA0761F4AC9AE091A401E03009F0AB9A07
:1001F800E091A601E03009F0AF9A0FC0E230A0E02C
:10020800FA0759F4AE9AE091A401E03009F0AB9AEC
:10021800E091A501E03009F0AD9A88EC90E00197F3
:10022800F1F7E881F0E0309721F4AA98AD98AF98FB
:100238000FC0E130A0E0FA0721F4AC98AB98AF9872
:1002480007C0E230A0E0FA0719F4AE98AB98AD9871
:1002580021960895C0D1E0E0E3BFEAE4E2BFA0E060
:100268009CDF18C1B8D1A0E098DF14C1B4D1E0E098
:10027800EEBDBFD1A1E091DF0DC1ADD1A1E08DDF11
:1002880009C1A9D1E0E0E5BDEAE4E4BDA2E085DF6B
:1002980001C1A1D1A2E081DFFDC0EA93EFB7EA93E3
:1002A800829B03C0E3B7E77009F006C0E091B6018E
:1002B800E2BFE5E0E3BFA2D121C0EA93EFB7EA933A
:1002C800839B03C0EEB5E77009F008C0EFEFEDBD02
:1002D800E091B601ECBDE5E0EEBD90D10FC0EA9328
:1002E800EFB7EA93B29B03C0E5B5E77009F006C023
:1002F800E091B601E4BDE7E0E5BD80D1E991EFBF4B
:10030800E991189568D1C4B0D5B0EB2DEF5FAE2E4A
:10031800E3E0EA1510F4E4E0AE1AEA2DE064E7B988
:10032800E3E0BE1650F4EFEFF1E0CE1ADF0A6CD12D
:10033800EA0FFB1FC082D182A1C0F601EF5FF04037
:100348006AD185D17AD1E093B001F093B10160937D
:10035800B2017093B301A091B701AF5FA093B70149
:10036800AB3408F483C0A091B801A33020F0A630C4
:1003780010F4E1E001C0E0E0E093B5014CD1A8320F
:10038800E0E0BE07E0E08E07E0E09E0724F4A091DD
:10039800B601AA3408F403C0E0E0E093B501E091A7
:1003A800B501E03019F09498969805C0949A969AF9
:1003B800EFE2E093B6012FD1A236E3E4BE07E0E016
:1003C8008E07E0E09E0754F4A091B601A43B28F400
:1003D800E091B601EF5FE093B601949A1CD1A63B79
:1003E800EAE4BE07E0E08E07E0E09E0754F0A09143
:1003F800B601A03328F0E091B601E150E093B601D0
:10040800969A09D1A43DEAE4BE07E0E08E07E0E051
:100418009E0724F0A091B601A33308F405C0E0912B
:10042800B601E350E093B601E091B901A091B6019D
:10043800EA1709F098DEE091B601E093B901A091BE
:10044800B801A33011F0A43009F403C0A091B80199
:100458008ADEE0E0E093B701E093B001E093B101F8
:10046800E093B201E093B301E093B801CDD0AE0FB1
:10047800BF1FF601EF5FF040ED93FC93E1E0E093DE
:10048800B401B394E3E0EB1508F4BB2485E38A9543
:10049800F1F7369AE991EFBFF991E991B991A991EC
:1004A8009991899179916991F99019900990189584
:1004B800E0E0EBBBEABBE8BBE1E0E7BBE0E0E5BBC3
:1004C800ECEFE4BBE0E0E2BBE0E5E1BBEAE4E2BF7D
:1004D800ECECECBFE0E0EFBD8CD0E0E0E7BDE6BDC2
:1004E800EFEFEBBDECECEABDE0E0E9BDE8BDE2BD55
:1004F800EAE4E4BDECECE3BDEBB7E06EEBBFEFE0A4
:10050800E5BFE0E4E4BFE0EEEABFE7EDE9BFE0E025
:10051800EBB9E8EDEAB9E6E8E0BDE0E0E0BDE7E622
:10052800E9B9E0E8E8B9E0E0E0BFE0E4E7B9EEEC1B
:10053800E6B9E0E0EDB9E6BFEDE1E1BDEDE0E1BD32
:100548007894ACEC10DE829B05C0E1E0E093A0015A
:10055800E0E004C0E0E0E093A001E1E0E093A40162
:10056800839B05C0E1E0E093A101E0E004C0E0E086
:10057800E093A101E1E0E093A501B29B05C0E1E0B1
:10058800E093A201E0E004C0E0E0E093A201E1E032
:10059800E093A601A895E091B401E03011F077202E
:1005A80009F412C0B9DD10E0143058F43DD0EC91D4
:1005B800AE2FD9DD39D050D045D0AE2FD4DD1F5F56
:1005C800F3CFE0E0E093B401BECFFFCFEA93FA9314
:1005D800EFB7EA9308950A921A92FA926A937A9375
:1005E8008A939A93AA93BA93EA93FA93EFB7EA9302
:1005F8000895EFEFEDBDEAE4ECBD0895E091B80190
:10060800EF5FE093B8010895EB2DA8EAB1E0F0E0C0
:10061800EE0FFF1F0895A091B001B091B101809134
:10062800B2019091B3010895E12FA8EAB1E0F0E09A
:10063800EE0FFF1FAE0FBF1F0895EA0FFB1F681FC5
:10064800791F0895EF2FFF27E7FDFFEF08956F2F1C
:10065800660F660B762F0895ED91FC91119708951A
:00000001FF
