:100000000C9444000C9400000C9400000C944D01DE
:100010000C9445010C9400000C9441010C940000D8
:100020000C943A010C942E010C9400000C94740072
:100030000C9400000C94A3000C9451010C9400004B
:100040000C9400000C9400000C9400000C943601F9
:100050000C9400001027E80364000A00010000105F
:100060000001100001000000000001002F0001004D
:100070000200660002000A0068000100B5016A0083
:100080000100B6016C000000F894EE27ECBBF1E033
:10009000FBBFEBBFE5BFF8E1F1BDE1BD8DE0A2E044
:1000A000BB27ED938A95E9F780E094E0A0E6ED9315
:1000B0000197E9F7EEE6F0E085919591009761F000
:1000C000A591B59105901590BF01F00105900D9295
:1000D0000197E1F7FB01F0CFEFE5EDBFE4E0EEBF04
:1000E000C0E6D1E00C9471025DD21A930A931BB161
:1000F0000CB1E12FEC7189F4E52D5394F0E0E05A56
:10010000FE4F0083E0E2E51509F455247394E0E224
:10011000E71519F47724689420F80991199122C001
:100120001A937720F1F3E42D4394F0E0E05AFE4F68
:100130001081E0E2E41509F44424F8947A94789468
:10014000E12F199108952ED2882061F08A94E92D2B
:100150009394F0E0E058FE4FE081ECB9E0E2E9155D
:1001600009F49924E991EFBFF991E9911895AA93BF
:10017000E0E2E815E9F3F894882011F45D990DC0E8
:10018000E62D6394F0E0E058FE4FA881A083E0E202
:10019000E61509F46624839402C0E881ECB97894EA
:1001A0005BC0AA93E091B501E03059F0E881F0E03E
:1001B000E056FE4FE081E03021F0A091B601A0337F
:1001C00008F44AC0E881F0E0309761F4AA9AE0911F
:1001D000A501E03009F0AD9AE091A601E03009F008
:1001E000AF9A1FC0E130A0E0FA0761F4AC9AE09149
:1001F000A401E03009F0AB9AE091A601E03009F0EB
:10020000AF9A0FC0E230A0E0FA0759F4AE9AE0913D
:10021000A401E03009F0AB9AE091A501E03009F0CB
:10022000AD9A88EC90E00197F1F7E881F0E0309723
:1002300021F4AA98AD98AF980FC0E130A0E0FA077A
:1002400021F4AC98AB98AF9807C0E230A0E0FA0771
:1002500019F4AE98AB98AD9821960895A8D1E0E036
:10026000E3BFEAE4E2BFA0E09CDF2DC1A0D1A0E0A3
:1002700098DF29C19CD1E0E0EEBDA7D1A1E091DFDC
:1002800022C195D1A1E08DDF1EC191D1E0E0E5BD95
:10029000EAE4E4BDA2E085DF16C189D1A2E081DFF6
:1002A00012C185D1C4B0D5B0EB2DEF5FAE2EE3E027
:1002B000EA1510F4E4E0AE1AEA2DE064E7B9E3E0F1
:1002C000BE1608F058C0EFEFF1E0CE1ADF0A82D177
:1002D000EA0FFB1FC082D18284D124F487D1A08190
:1002E000A03009F030C082D1A1E0A08384D1E09198
:1002F000B501E03041F1EB2DF0E0309749F4E3B780
:10030000E77029F4E091B601E2BFE5E0E3BF1BC06E
:10031000E130A0E0FA0759F4EEB5E77039F4EFEFF9
:10032000EDBDE091B601ECBDE5E0EEBD0CC0E23004
:10033000A0E0FA0741F4E5B5E77029F4E091B601D1
:10034000E4BDE7E0E5BD5DD11CF450D1A0E0A083A1
:1003500058D124F45BD1A081A03009F006C056D159
:10036000A1E0A083B092B70146D13BD11CF44ED19D
:10037000A0E0A0839CC0F601EF5FF0404CD167D1B4
:100380005CD1E093B001F093B1016093B20170933E
:10039000B301A091B801AF5FA093B801AB3408F4EA
:1003A0007EC0A091B901A53020F0AB3010F4E1E09F
:1003B00001C0E0E0E093B5012ED1A832E0E0BE0735
:1003C000E0E08E07E0E09E0724F4A091B601AA3495
:1003D00008F403C0E0E0E093B501E091B501E0303E
:1003E00019F09498969805C0949A969AEFE2E09343
:1003F000B60111D1A236E3E4BE07E0E08E07E0E0EB
:100400009E0754F4A091B601A43B28F4E091B601F4
:10041000EF5FE093B601949AFED0A63BEAE4BE07F4
:10042000E0E08E07E0E09E0754F0A091B601A03313
:1004300028F0E091B601E150E093B601969AEBD036
:10044000A43DEAE4BE07E0E08E07E0E09E0724F06A
:10045000A091B601A33308F405C0E091B601E350C2
:10046000E093B601E091BA01A091B601EA1709F054
:100470007EDEE091B601E093BA01A091B901A83007
:1004800008F075DEE0E0E093B801E093B001E0939E
:10049000B101E093B201E093B301E093B9019AD0C6
:1004A000AE0FBF1FF601EF5FF040ED93FC93E1E06C
:1004B000E093B401B394E3E0EB1508F4BB2485E3C7
:1004C0008A95F1F7369AE991EFBFF991E991B991DF
:1004D000A9919991899179916991F99019900990CF
:1004E0001895E0E0EBBBEABBE8BBE1E0E7BBE0E08E
:1004F000E5BBECEFE4BBE0E0E2BBE0E5E1BBEAE456
:10050000E2BFECECECBFE0E0EFBD5FD0E0E0E7BDC8
:10051000E6BDEFEFEBBDECECEABDE0E0E9BDE8BD28
:10052000E2BDEAE4E4BDECECE3BDE0E0E5BFE4BF3E
:10053000E7EDE9BFE0E0EBB9E8EDEAB9E6E8E0BDF8
:10054000E0E0E0BDE7E6E9B9E0E8E8B9E0E0E0BF17
:10055000E0E4E7B9EEECE6B9E0E0EDB9E6BFEDE1E5
:10056000E1BDEDE0E1BD7894ACEC01DEA895E09151
:10057000B401E03011F0772009F412C0D1DD10E0B1
:10058000143058F451D0EC91AE2FF1DD4DD064D041
:1005900059D0AE2FECDD1F5FF3CFE0E0E093B40164
:1005A000E5CFFFCFEA93FA93EFB7EA9308950A9263
:1005B0001A92FA926A937A938A939A93AA93BA9325
:1005C000EA93FA93EFB7EA930895EFEFEDBDEAE40B
:1005D000ECBD0895EB2DA8EAB1E0F0E0EE0FFF1FAF
:1005E0000895E9E1F0E0EC15FD050895EB2DF0E04C
:1005F000E056FE4F0895E091B901EF5FE093B90135
:100600000895EBEFFFEFCE16DF060895EB2DF0E037
:10061000EC55FE4F0895A091B001B091B1018091C9
:10062000B2019091B3010895E12FA8EAB1E0F0E0A2
:10063000EE0FFF1FAE0FBF1F0895EA0FFB1F681FCD
:10064000791F0895EF2FFF27E7FDFFEF08956F2F24
:10065000660F660B762F0895ED91FC911197089522
:00000001FF
