:020000000C945E
:1000020044000C9400000C9400000C945A010C94CF
:1000120051010C9400000C944B010C9400000C94C0
:1000220040010C9432010C9400000C9474000C9466
:1000320000000C94A6000C9460010C9400000C9437
:1000420000000C9400000C9400000C943B010C94F2
:1000520000001027E80364000A00010000100001FC
:1000620010000100000001002F000000010002004A
:1000720066000100B50168000100B6016A000200D5
:100082000A006C000000F894EE27ECBBF1E0FBBF25
:10009200EBBFE5BFF8E1F1BDE1BD8DE0A2E0BB271A
:1000A200ED938A95E9F780E094E0A0E6ED9301975D
:1000B200E9F7EEE6F0E085919591009761F0A59160
:1000C200B59105901590BF01F00105900D92019731
:1000D200E1F7FB01F0CFEFE5EDBFE4E0EEBFC0E6F4
:1000E200D1E00C947A02EA93FA93EFB7EA931A9367
:1000F2000A931BB10CB1E12FEC7189F4E52D5394F5
:10010200F0E0E05AFE4F0083E0E2E51509F45524E1
:100112007394E0E2E71519F47724689420F80991C2
:10012200199125C01A937720F1F3E42D4394F0E05E
:10013200E05AFE4F1081E0E2E41509F44424F894F9
:100142007A947894E12F19910895EA93FA93EFB78C
:10015200EA93882061F08A94E92D9394F0E0E058C4
:10016200FE4FE081ECB9E0E2E91509F49924E99146
:10017200EFBFF991E9911895E0E2E815E9F3F894F7
:10018200882011F45D990DC0E62D6394F0E0E058EB
:10019200FE4FA881A083E0E2E61509F46624839469
:1001A20002C0E881ECB978945AC0E091B501E03020
:1001B20059F00E94E002E056FE4FE081E03021F06B
:1001C200A091B601A03308F44AC00E94E002309721
:1001D20061F4AA9AE091A501E03009F0AD9AE091AC
:1001E200A601E03009F0AF9A1FC0E130A0E0FA07A3
:1001F20061F4AC9AE091A401E03009F0AB9AE0918D
:10020200A601E03009F0AF9A0FC0E230A0E0FA0791
:1002120059F4AE9AE091A401E03009F0AB9AE09172
:10022200A501E03009F0AD9A88EC90E00197F1F772
:100232000E94E002309721F4AA98AD98AF980FC0BF
:10024200E130A0E0FA0721F4AC98AB98AF9807C070
:10025200E230A0E0FA0719F4AE98AB98AD98219677
:1002620008950E94E302E3BFEAE4E2BFE0E0EA931A
:100272009CDF31C10E94E302EA9397DF2CC10E9406
:10028200E302EEBDEFEFEDBDEAE4ECBDE1E0EA939F
:100292008CDF21C10E94F202E1E0EA9386DF1BC1FA
:1002A2000E94E302E5BDEAE4E4BDE2E0EA937DDF19
:1002B20012C10E94F202E2E0EA9377DF0CC10E94CF
:1002C200F202C4B0D5B0EB2DEF5FAE2EE3E0EA153B
:1002D20020F4EA2DF0E03497AE2EEA2DE064E7B97F
:1002E200E3E0BE1610F00C94F701EFEFF1E0CE1A46
:1002F200DF0A0E940003EA0FFB1FC082D182ECE3F7
:10030200F0E0EC15FD052CF40E940703A081A0305B
:1003120009F03EC00E940703A1E0A083E091B90169
:10032200EF5FE093B901E091B501E03089F10E94FD
:100332000C03309761F4E3B7E77019F0E1EAEA934E
:100342001BDFE091B601E2BFE5E0E3BF21C0E1308F
:10035200A0E0FA0771F4EEB5E77019F0E2EAEA9369
:100362000BDFEFEFEDBDE091B601ECBDE5E0EEBDD8
:100372000FC0E230A0E0FA0759F4E5B5E77019F0D2
:10038200E3EAEA93F9DEE091B601E4BDE7E0E5BD18
:10039200E2E4FFEFCE16DF0624F40E940703A0E09A
:1003A200A0830024C014D0043CF40E940C03EC553A
:1003B200FE4FA081A03009F00DC00E940C03EC5545
:1003C200FE4FA1E0A083B092B701E091B901EF5FC7
:1003D200E093B901E2EDF0E0EC15FD0534F40E9482
:1003E2000C03EC55FE4FA0E0A08369C0F601EF5F5D
:1003F200F0400E940F030E942B030E942103E0930E
:10040200B001F093B1016093B2017093B301A09176
:10041200B801AF5FA093B801A43610F40C94570250
:10042200A091B901E5E00E943003E093B501E0300C
:1004320019F09498969805C0949A969AE0E3E093FE
:10044200B6010E940F03A03FE5E5BE07E0E08E077C
:10045200E0E09E0754F4A091B601A23B28F4E0919B
:10046200B601EF5FE093B601949A0E940F03A13C9C
:10047200EDE5BE07E0E08E07E0E09E0754F0A091B4
:10048200B601A03328F0E091B601E150E093B60145
:10049200969AE0E0E093B801E093B001E093B101F5
:1004A200E093B201E093B301E093B9010E9400032B
:1004B200AE0FBF1FF601EF5FF040ED93FC93E1E05A
:1004C200E093B401B394E3E0EB1508F4BB2485E3B5
:1004D2008A95F1F7369AE991EFBFF991E991B991CD
:1004E200A9919991899179916991F99019900990BD
:1004F2001895E0E0EBBBEABBE8BBE1E0E7BBE0E07C
:10050200E5BBECEFE4BBE0E0E2BBE0E5E1BBEAE443
:10051200E2BFECECECBFE0E0EFBDEFEFEDBDEAE4F3
:10052200ECBDE0E0E7BDE6BDEFEFEBBDECECEABD14
:10053200E0E0E9BDE8BDE2BDEAE4E4BDECECE3BD28
:10054200E0E0E5BFE4BFE7EDE9BFE0E0EBB9E8EDED
:10055200EAB9E6E8E0BDE0E0E0BDE7E6E9B9E0E8F7
:10056200E8B9E0E0E0BFE0E4E7B9EEECE6B9E0E0EC
:10057200EDB9E6BFEFE1E1BDEFE0E1BD7894A8950A
:10058200E091B401E03011F0772009F416C0CADD21
:1005920010E0143078F40E941803EC91EA93ECDD39
:1005A2000E9418030E9435030E942603EA93E4DDA9
:1005B2001F5FEFCFE0E0E093B401E1CFFFCFE8812E
:1005C200F0E008950A921A92FA926A937A938A93C1
:1005D2009A93AA93BA93EA93FA93EFB7EA93E0E075
:1005E20008950A921A92FA926A937A938A939A9344
:1005F200AA93BA93EA93FA93EFB7EA930895EB2D8D
:10060200A8EAB1E0F0E0EE0FFF1F0895EB2DF0E055
:10061200E056FE4F0895EB2DF0E00895A091B00151
:10062200B091B1018091B2019091B3010895E12F8F
:10063200A8EAB1E0F0E0EE0FFF1FAE0FBF1F089572
:10064200EA0FFB1F681F791F0895EF2FFF27E7FDB1
:10065200FFEF08956F2F660F660B762F0895EA1746
:10066200E1E008F0EE270895ED91FC9111970895CD
:00000001FF
