:080000000C9444000C9465010E
:100008000C9478010C945F010C9456010C94000038
:100018000C9450010C9400000C9445010C94370189
:100028000C9400000C9474000C9400000C94A6002E
:100038000C94A3010C9400000C9400000C94000094
:100048000C948D010C9440010C9400001027E803D7
:1000580064000A0001000010000110000100000007
:1000680001002F0000000100020066000100B50138
:1000780068000100B6016A0002000A006C00000076
:10008800F894EE27ECBBF1E0FBBFEBBFE5BFF8E16E
:10009800F1BDE1BD8DE0A2E0BB27ED938A95E9F7BC
:1000A80080E094E0A0E6ED930197E9F7EEE6F0E052
:1000B80085919591009761F0A591B591059015905E
:1000C800BF01F00105900D920197E1F7FB01F0CF18
:1000D800EFE5EDBFE4E0EEBFC0E6D1E00C948B02A3
:1000E800EA93FA93EFB7EA931A930A931BB10CB108
:1000F800E12FEC7189F4E52D5394F0E0E05AFE4FBE
:100108000083E0E2E51509F455247394E0E2E7156D
:1001180019F47724689420F80991199125C01A9345
:100128007720F1F3E42D4394F0E0E05AFE4F10817C
:10013800E0E2E41509F44424F8947A947894E12FE1
:1001480019910895EA93FA93EFB7EA93882061F03A
:100158008A94E92D9394F0E0E058FE4FE081ECB9E1
:10016800E0E2E91509F49924E991EFBFF991E991E1
:100178001895E0E2E815E9F3F894882011F45D9900
:100188000DC0E62D6394F0E0E058FE4FA881A083EF
:10019800E0E2E61509F46624839402C0E881ECB92C
:1001A80078945FC0EBB7E06EEBBFE0EEEABFE0919A
:1001B800B501E03059F00E942103E056FE4FE0817E
:1001C800E03021F0A091B601A03308F44AC00E94A3
:1001D8002103309761F4AA9AE091A501E03009F073
:1001E800AD9AE091A601E03009F0AF9A1FC0E13066
:1001F800A0E0FA0761F4AC9AE091A401E03009F0BC
:10020800AB9AE091A601E03009F0AF9A0FC0E23056
:10021800A0E0FA0759F4AE9AE091A401E03009F0A1
:10022800AB9AE091A501E03009F0AD9A88EC90E036
:100238000197F1F70E942103309721F4AA98AD980D
:10024800AF980FC0E130A0E0FA0721F4AC98AB9862
:10025800AF9807C0E230A0E0FA0719F4AE98AB985F
:10026800AD98219608950E942403E3BFEAE4E2BF13
:10027800E0E0EA9397DF3DC10E942403EA9392DF0E
:1002880038C10E942403EEBDEFEFEDBDEAE4ECBDFA
:10029800E1E0EA9387DF2DC10E943303E1E0EA93AE
:1002A80081DF27C10E942403E5BDEAE4E4BDE2E062
:1002B800EA9378DF1EC10E943303E2E0EA9372DF1B
:1002C80018C1EA93EFB7EA93829B03C0E3B7E770DC
:1002D80009F009C0E091B601E2BFE5E0E3BF0E9482
:1002E8004103EF7BEBBF27C0EA93EFB7EA93839B09
:1002F80003C0EEB5E77009F00BC0EFEFEDBDE0917C
:10030800B601ECBDE5E0EEBD0E944103EF77EBBF1F
:1003180012C0EA93EFB7EA93B29B03C0E5B5E77062
:1003280009F009C0E091B601E4BDE7E0E5BD0E942F
:100338004103EF7DEBBFE991EFBFE99118950E946A
:100348003303C4B0D5B0EB2DEF5FAE2EE3E0EA1572
:1003580020F4EA2DF0E03497AE2EEA2DE064E7B9F8
:10036800E3E0BE1658F4EFEFF1E0CE1ADF0A0E9480
:100378004803EA0FFB1FC082D182AFC0F601EF5FCE
:10038800F0400E944F030E946B030E946103E093B8
:10039800B001F093B1016093B2017093B301A091E1
:1003A800B701AF5FA093B701AB3410F40C946802A7
:1003B800A091B801A33020F0A63010F4E1E001C00C
:1003C800E0E0E093B5010E944F03A832E0E0BE07E9
:1003D800E0E08E07E0E09E0724F4A091B601AA347D
:1003E80008F403C0E0E0E093B501E091B501E03026
:1003F80019F09498969805C0949A969AEFE2E0932B
:10040800B6010E944F03A236E3E4BE07E0E08E0780
:10041800E0E09E0754F4A091B601A43B28F4E091D3
:10042800B601EF5FE093B601949A0E944F03A63B92
:10043800EAE4BE07E0E08E07E0E09E0754F0A091F2
:10044800B601A03328F0E091B601E150E093B6017F
:10045800969A0E944F03A43DEAE4BE07E0E08E07A7
:10046800E0E09E0724F0A091B601A33308F406C08B
:10047800E091B601F0E03397E093B601E091B9015D
:10048800A091B601EA1721F0E091B601EA9371DE76
:10049800E091B601E093B901A091B801A33011F041
:1004A800A43009F404C0E091B801EA9362DEE0E008
:1004B800E093B701E093B001E093B101E093B2019A
:1004C800E093B301E093B8010E944803AE0FBF1F49
:1004D800F601EF5FF040ED93FC93E1E0E093B401A7
:1004E800B394E3E0EB1508F4BB2485E38A95F1F7B0
:1004F800369AE991EFBFF991E991B991A99199914A
:10050800899179916991F990199009901895E0E08D
:10051800EBBBEABBE8BBE1E0E7BBE0E0E5BBECEF47
:10052800E4BBE0E0E2BBE0E5E1BBEAE4E2BFECEC1F
:10053800ECBFE0E0EFBDEFEFEDBDEAE4ECBDE0E0DD
:10054800E7BDE6BDEFEFEBBDECECEABDE0E0E9BDF1
:10055800E8BDE2BDEAE4E4BDECECE3BDEBB7E06E78
:10056800EBBFEFE0E5BFE0E4E4BFE0EEEABFE7EDB4
:10057800E9BFE0E0EBB9E8EDEAB9E6E8E0BDE0E0C4
:10058800E0BDE7E6E9B9E0E8E8B9E0E0E0BFE0E4CB
:10059800E7B9EEECE6B9E0E0EDB9E6BFEDE1E1BDC3
:1005A800EDE0E1BD7894ECECEA93E3DD829B05C0D5
:1005B800E1E0E093A001E0E004C0E0E0E093A00106
:1005C800E1E0E093A401839B05C0E1E0E093A10191
:1005D800E0E004C0E0E0E093A101E1E0E093A501E0
:1005E800B29B05C0E1E0E093A201E0E004C0E0E0D6
:1005F800E093A201E1E0E093A601A895E091B4019F
:10060800E03011F0772009F416C089DD10E01430CD
:1006180078F40E945803EC91EA93ABDD0E945803EA
:100628000E9470030E946603EA93A3DD1F5FEFCF69
:10063800E0E0E093B401BACFFFCFE881F0E008959D
:100648000A921A92FA926A937A938A939A93AA933D
:10065800BA93EA93FA93EFB7EA93E0E008950A921F
:100668001A92FA926A937A938A939A93AA93BA936C
:10067800EA93FA93EFB7EA930895E091B801EF5F30
:10068800E093B801EBB70895EB2DA8EAB1E0F0E0EC
:10069800EE0FFF1F0895A091B001B091B1018091B4
:1006A800B2019091B3010895E12FA8EAB1E0F0E01A
:1006B800EE0FFF1FAE0FBF1F0895EA0FFB1F681F45
:1006C800791F0895EF2FFF27E7FDFFEF08956F2F9C
:1006D800660F660B762F0895ED91FC91119708959A
:00000001FF
